:100000000C9435000C945D000C945D000C945D0024
:100010000C945D000C945D000C945D000C945D00EC
:100020000C945D000C945D000C945D000C945D00DC
:100030000C945D000C945D000C945D000C945D00CC
:100040000C9479020C945D000C9447020C942102EC
:100050000C945D000C945D000C945D000C945D00AC
:100060000C945D000C945D00C30211241FBECFEF01
:10007000D8E0DEBFCDBF11E0A0E0B1E0E4EFFAE0F0
:1000800002C005900D92A034B107D9F72CE0A0E48E
:10009000B1E001C01D92AA33B207E1F710E0C5E359
:1000A000D0E004C02197FE010E944B05C433D10764
:1000B000C9F70E9449030C9478050C940000CF9274
:1000C000DF92EF92FF920F931F93CF93DF936C0118
:1000D0007A018B01C0E0D0E0CE15DF0589F0D801B0
:1000E0006D918D01D601ED91FC910190F081E02D93
:1000F000C6010995892B11F47E0102C02196ECCF2F
:10010000C701DF91CF911F910F91FF90EF90DF908A
:10011000CF900895FC01918D828D981761F0828DAA
:10012000DF01A80FB11D5D968C91928D9F5F9F732B
:10013000928F90E008958FEF9FEF0895FC01918DCD
:10014000828D981731F0828DE80FF11D858D90E03A
:1001500008958FEF9FEF0895FC01918D228D892FD7
:1001600090E0805C9F4F821B91098F7399270895BF
:1001700085E591E00E94AC0021E0892B09F420E0A4
:10018000822F0895FC01848DDF01A80FB11DA35AB1
:10019000BF4F2C91848D90E001968F739927848FA7
:1001A000A689B7892C93A089B1898C9180648C939E
:1001B000938D848D981306C00288F389E02D808189
:1001C0008F7D80830895EF92FF920F931F93CF93BB
:1001D000DF93EC0181E0888F9B8D8C8D981305C097
:1001E000E889F989808185FD24C0F62E0B8D10E009
:1001F0000F5F1F4F0F731127E02E8C8DE8120CC07C
:100200000FB607FCFACFE889F989808185FFF5CF21
:10021000CE010E94C200F1CF8B8DFE01E80FF11DCF
:10022000E35AFF4FF0820B8FEA89FB89808180625D
:1002300007C0EE89FF896083E889F989808180643D
:10024000808381E090E0DF91CF911F910F91FF902B
:10025000EF900895CF93DF93EC01888D8823C9F048
:10026000EA89FB89808185FD05C0A889B9898C91BF
:1002700086FD0FC00FB607FCF5CF808185FFF2CF5A
:10028000A889B9898C9185FFEDCFCE010E94C2006B
:10029000E7CFDF91CF91089580E090E0892B29F09E
:1002A0000E94B80081110C94000008953FB7F894A3
:1002B0008091450190914601A0914701B09148017C
:1002C00026B5A89B05C02F3F19F00196A11DB11DB1
:1002D0003FBFBA2FA92F982F8827820F911DA11DEC
:1002E000B11DBC01CD0142E0660F771F881F991F29
:1002F0004A95D1F708958F929F92AF92BF92CF9275
:10030000DF92EF92FF926B017C010E9456014B013C
:100310005C01C114D104E104F104F1F00E94560122
:10032000DC01CB0188199909AA09BB09883E9340D1
:10033000A105B10570F321E0C21AD108E108F10866
:1003400088EE880E83E0981EA11CB11CC114D10454
:10035000E104F10419F7DDCFFF90EF90DF90CF902B
:10036000BF90AF909F908F9008952FB7F8946091B1
:1003700041017091420180914301909144012FBF4E
:1003800008950E9451056115710579F0FB010190F6
:100390000020E9F73197AF01461B570BDC01ED91C7
:1003A000FC910280F381E02D099480E090E00895B3
:1003B0004F925F926F927F92EF92FF920F931F93F3
:1003C000CF93DF93CDB7DEB7A1970FB6F894DEBF1A
:1003D0000FBECDBF7C01FA01CB0119A2223008F477
:1003E0002AE08E010F5D1F4F422E512C612C712C83
:1003F000BF01A30192010E945605F901CA010150F3
:1004000011096A3014F4605D01C0695CD8016C9315
:10041000232B242B252B61F7B801C7010E94C301B0
:10042000A1960FB6F894DEBF0FBECDBFDF91CF917E
:100430001F910F91FF90EF907F906F905F904F9082
:1004400008951F920F920FB60F9211242F933F938E
:100450004F935F936F937F938F939F93AF93BF93CC
:10046000EF93FF9385E591E00E94C200FF91EF9129
:10047000BF91AF919F918F917F916F915F914F91BC
:100480003F912F910F900FBE0F901F9018951F92C4
:100490000F920FB60F9211242F938F939F93EF9388
:1004A000FF93E0916501F09166018081E0916B011D
:1004B000F0916C0182FD12C0908180916E018F5F7E
:1004C0008F7320916F01821751F0E0916E01F0E07F
:1004D000EB5AFE4F958F80936E0101C08081FF9192
:1004E000EF919F918F912F910F900FBE0F901F90C2
:1004F00018951F920F920FB60F9211242F933F93CE
:100500008F939F93AF93BF9380914101909142014C
:10051000A0914301B09144013091400123E0230FA9
:100520002D3720F40196A11DB11D05C026E8230F2B
:100530000296A11DB11D209340018093410190932B
:100540004201A0934301B0934401809145019091F1
:100550004601A0914701B09148010196A11DB11D2E
:100560008093450190934601A0934701B0934801C1
:10057000BF91AF919F918F913F912F910F900FBE9F
:100580000F901F901895CF93DF93109258011092FF
:10059000570188EE93E0A0E0B0E08093590190937A
:1005A0005A01A0935B01B0935C018EE091E09093BF
:1005B00056018093550185EC90E090936201809301
:1005C000610184EC90E0909364018093630180EC7E
:1005D00090E0909366018093650181EC90E09093A8
:1005E00068018093670182EC90E090936A018093A8
:1005F000690186EC90E090936C0180936B011092FE
:100600006E0110926F01109270011092710182EFD1
:1006100091E02FEF3FEFFC01DC01199680569F4FD0
:10062000318320833383228315821482ED01239743
:10063000188221961882219618821C923A961A9650
:10064000E817F90769F7E25FFB4029F71092F80B0A
:100650001092F90B1092FA0B1092FB0B1092FC0BFC
:100660001092FD0B1092FE0B1092FF0B1092000CDB
:100670001092010C1092020C1092030C1092040CB8
:100680001092050C1092060C1092070CDF91CF917E
:100690000895789484B5826084BD84B5816084BDFA
:1006A00085B5826085BD85B5816085BD80916E0010
:1006B000816080936E001092810080918100826041
:1006C000809381008091810081608093810080917E
:1006D00080008160809380008091B100846080936D
:1006E000B1008091B00081608093B00080917A0069
:1006F000846080937A0080917A00826080937A008F
:1007000080917A00816080937A0080917A0080687D
:1007100080937A001092C1001092360C1092370C20
:100720001092380C1092390C1092F40B1092F50BB9
:100730001092F60B1092F70B60ED77E080E090E0FE
:100740000E947B0185E591E09093350C8093340CF9
:10075000E0916501F091660182E08083E0916101A2
:10076000F09162011082E0916301F091640180E1F7
:10077000808310926D01E0916901F0916A0186E039
:100780008083E0916701F0916801808180618083BE
:10079000E0916701F0916801808188608083E09139
:1007A0006701F0916801808180688083E091670132
:1007B000F091680180818F7D80830E94B5016093F4
:1007C000F40B7093F50B8093F60B9093F70B6AE1A3
:1007D00071E08091340C9091350C0E94C3016AE065
:1007E00070E080E090E00E947B0181E08093080C43
:1007F00022EF31E04AE080E090E0D901A80FB91F74
:10080000E0E0F1E0542F01900D925A95E1F70A963D
:10081000803A910591F720563F4F5BE0223F350724
:1008200051F71092030110920201109201011092EF
:10083000000110924C0110924B0110924A0110924B
:10084000490184EF882E99249394A12CB12C0E9405
:10085000B501672B682B692B41F40E94B50162300A
:1008600071058105910508F40BC10E94B5016093E3
:100870005101709352018093530190935401C090A1
:100880004D01D0904E01E0904F01F09050016C1559
:100890007D058E059F0540F460934D0170934E01D8
:1008A00080934F0190935001C0904D01D0904E0124
:1008B000E0904F01F09050019B01AC012C193D09D3
:1008C0004E095F0969017A013AEFC316D104E104C8
:1008D000F10408F4D5C060934D0170934E018093EC
:1008E0004F01909350018092000C9092010CA092C5
:1008F000020CB092030C1092040C1092050C109292
:10090000060C1092070C8091F80B9091F90BA091B6
:10091000FA0BB091FB0B8093FC0B9093FD0BA09313
:10092000FE0BB093FF0B0E94B5016093F80B709320
:10093000F90B8093FA0B9093FB0B0E94B501609327
:10094000F40B7093F50B8093F60B9093F70B0E94CA
:10095000B5016B017C016CE271E08091340C9091E7
:10096000350C0E94C3012AE041E050E060E070E0F5
:100970008091340C9091350C0E94D80163E371E0B2
:100980008091340C9091350C0E94C3012AE0B7018C
:10099000A6018091340C9091350C0E94D80165E33A
:1009A00071E08091340C9091350C0E94C3018091CC
:1009B000F80B9091F90BA091FA0BB091FB0BB701DA
:1009C000A601481B590B6A0B7B0B2AE08091340C63
:1009D0009091350C0E94D80165E371E08091340C50
:1009E0009091350C0E94C3014091F80B5091F90B86
:1009F0006091FA0B7091FB0B8091FC0B9091FD0BB9
:100A0000A091FE0BB091FF0B481B590B6A0B7B0B9F
:100A10002AE08091340C9091350C0E94D80167E354
:100A200071E08091340C9091350C0E94C3010E94BA
:100A3000B501AB01BC012AE08091340C9091350CDA
:100A40000E94D801E090340CF090350C69E371E01D
:100A5000C7010E94C30169E271E0C7010E94C3019E
:100A600065E070E080E090E00E947B010E94B501AB
:100A70006093F80B7093F90B8093FA0B9093FB0B38
:100A800080910401909105018F3F4FEF9407E1F3AE
:100A90000E944C01DCCEEE0FFF1F0590F491E02D7B
:100AA000099481E090E0F8940C947805A1E21A2E64
:100AB000AA1BBB1BFD010DC0AA1FBB1FEE1FFF1F02
:100AC000A217B307E407F50720F0A21BB30BE40B52
:100AD000F50B661F771F881F991F1A9469F7609599
:100AE0007095809590959B01AC01BD01CF01089553
:040AF000F894FFCFA8
:100AF400FFFFFFFF00000000000000000000E30013
:100B04005F00AC008A009E002A01564D4450565F97
:100B1400317C315F564D4450560D0A00564D4450B9
:100B2400455F003A323A007C005F564D4450450020
:00000001FF
